:020000040800F2
:1000000068060020B5010008BD010008BF01000816
:10001000C1010008C3010008C5010008000000007C
:10002000000000000000000000000000C701000800
:10003000C901000800000000CB010008CD01000844
:10004000CF010008CF010008CF010008CF01000850
:10005000CF010008CF010008CF010008CF01000840
:10006000CF010008CF010008CF010008CF01000830
:10007000CF010008CF010008CF010008CF01000820
:10008000CF010008CF010008CF010008CF01000810
:10009000CF010008CF010008CF010008CF01000800
:1000A000CF010008CF010008CF010008CF010008F0
:1000B000CF010008CF010008CF010008CF010008E0
:1000C000CF010008CF010008CF010008CF010008D0
:1000D000CF010008CF010008CF010008CF010008C0
:1000E000CF010008CF010008CF01000800F002F89E
:1000F00000F050F814A696E8000CB244B344DA4578
:1001000001D100F047F8BAE80F000FA696E83000DA
:10011000A5EB040504EB0607AAEB0704A7F101070A
:100120004FEA15154FEA3414A4F10104AC4201D38F
:1001300000F030F813F0010F18BFFB1A43F0010371
:1001400000F001F8DBE71847C0050000E0050000FB
:10015000103A24BF78C878C1FAD8520724BF30C8F3
:1001600030C144BF04680C60704700007047000055
:100170000023002400250026103A28BF78C1FBD8B0
:10018000520728BF30C148BF0B6070471FB51FBD65
:1001900010B510BD00F031F81146FFF7F7FF00F081
:1001A00083FA00F04FF803B4FFF7F2FF03BC00F04E
:1001B00057F800000948804709480047FEE7FEE776
:1001C000FEE7FEE7FEE7FEE7FEE7FEE7FEE7FEE707
:1001D00004480549054A064B70470000B905000868
:1001E000ED0000086800002068060020680200207A
:1001F00068020020704770477047754600F02CF881
:10020000AE4605006946534620F00700854618B003
:1002100020B5FFF7DDFFBDE820404FF000064FF0AE
:1002200000074FF000084FF0000BAC46ACE8C009E7
:10023000ACE8C009ACE8C009ACE8C00921F007018E
:100240008D46704710B50446AFF300802046BDE8E8
:100250001040FFF7A8BF00000048704708000020CA
:1002600001491820ABBEFEE72600020070470000DF
:1002700088B00790069100200590049003900290AA
:10028000019000900698C07800F00F000590069845
:10029000C078C006002806D5FFE706988178059843
:1002A00008430590FFE70698007800284BD0FFE749
:1002B00007980068019000200390FFE70398072843
:1002C0003DD8FFE7039901208840029006980088F6
:1002D0000299084004900498029988422AD1FFE7C5
:1002E00003988000029002990F20884000900099A6
:1002F0000198884301900598029900FA01F101984C
:10030000084301900698C078282806D1FFE7039992
:1003100001208840079948610BE00698C07848287A
:1003200006D1FFE703990120884007990861FFE79C
:10033000FFE7FFE7FFE7039801300390BEE701986E
:1003400007990860FFE706980088B0F5807F50DBCA
:10035000FFE707984068019000200390FFE70398AB
:10036000072842D8FFE7039800F1080101208840E0
:100370000290069800880299084004900498029917
:1003800088422DD1FFE703988000029002990F2048
:10039000884000900099019888430190059802993F
:1003A00000FA01F10198084301900698C0782828C6
:1003B00008D1FFE7039800F1080101208840079960
:1003C0004861FFE70698C078482808D1FFE70398FE
:1003D00000F108010120884007990861FFE7FFE765
:1003E000FFE7039801300390B9E701980799486047
:1003F000FFE708B07047000082B00190ADF802102E
:10040000BDF802000199486102B0704782B00190C6
:10041000ADF80210BDF802000199086102B0704702
:1004200082B001908DF803109DF8030048B1FFE7FA
:10043000019A41F21801C4F20201086810430860F1
:1004400008E0019A41F21801C4F2020108689043E1
:100450000860FFE702B0704780B500F001F880BD8A
:1004600084B000200390029041F20001C4F2020126
:10047000086840F480300860FFE741F20000C4F2F1
:100480000200006800F400300290039801300390ED
:10049000FFE702990020019039B9FFE70398B0F512
:1004A000A06018BF01200190FFE70198C007002855
:1004B000E3D1FFE741F20000C4F2020000688003CC
:1004C000002803D5FFE70120029002E000200290FF
:1004D000FFE70298012851D1FFE742F20001C4F280
:1004E0000201086840F010000860086820F007006A
:1004F0000860086840F00200086041F20401C4F29C
:10050000020100910868086008680860086840F403
:1005100080600860086820F47C100860086840F477
:10052000E810086041F20001C4F20201086840F0DE
:1005300080700860FFE741F20000C4F2020000682A
:100540008001002801D4FFE7F5E741F20401C4F27D
:100550000201086820F003000860086840F002000B
:100560000860FFE741F20400C4F20200006800F0F6
:100570000C00082801D0FFE7F4E700E0FFE704B033
:100580007047000081B000900098042809D1FFE76F
:100590004EF21001CEF20001086840F0040008603D
:1005A00008E04EF21001CEF20001086820F00400CD
:1005B0000860FFE701B0704780B541F20002C4F265
:1005C0000202106840F00100106041F20401C4F220
:1005D000020108680023CFF6FF0318400860106886
:1005E0004FF6FF73CFF6F66318401060106820F4E2
:1005F00080201060086820F4FE00086041F20801C5
:10060000C4F202014FF41F000860FFF725FF4EF609
:100610000851CEF200014FF00060086080BD00007C
:1006200080B582B0ADF8060040F20000C2F20000D2
:10063000006844F6D351C1F26201A0FB0110400AE8
:10064000BDF8061048434EF21401CEF200010860D6
:1006500000F002F802B080BD80B56FF00400FFF733
:1006600091FF4EF21801CEF20001002008604EF218
:100670001001CEF20001086840F001000860FFE7B9
:100680004EF21000CEF200000068C003002801D432
:10069000FFE7F5E74EF21001CEF20001086820F006
:1006A0000100086080BD000080B586B00020059084
:1006B000082001210391FFF7B3FE0398ADF8100065
:1006C00010208DF8130002208DF8120040F6004033
:1006D000C4F2010004A9FFF7CBFDFFE740F600409C
:1006E000C4F20100009001210191FFF785FE4FF453
:1006F0007A700290FFF794FF00980199FFF786FE49
:100700000298FFF78DFFE9E72807000800000020A6
:100710000800000050010008300700080800002011
:10072000600600007001000800A24A0400000000FA
:04000005080000ED02
:00000001FF
